:1000000009C021C04DC01FC01EC01DC01CC01BC0E8
:100010003BC019C011241FBECFE9CDBF10E0A0E640
:10002000B0E0EAEEF2E002C005900D92A636B1070C
:10003000D9F710E0A6E6B0E001C01D92A936B107DD
:10004000E1F785D050C1DCCF28EB3BE004C0F901DB
:100050003197F1F781508823D1F7089580E28BBF63
:1000600086E085BB0895A89581B5886181BD81E64C
:1000700081BD0895479A379885B7877E806185BF8F
:1000800085B7806285BF08951F920F920FB60F92B9
:100090001124109266000F900FBE0F901F901895BC
:1000A0001F920F920FB60F9211248F93B29B03C031
:1000B00081E080936800B19B03C081E0809367007A
:1000C0008F910F900FBE0F901F901895C39ABB98F9
:1000D000C39820E030E040E050E006C0B39B09C088
:1000E0002F5F3F4F4F4F5F4F26173707480759077E
:1000F000A8F3BB9AB901CA01089528EB3BE013C0ED
:10010000C49A962F04C0F9013197F1F791509923C1
:10011000D1F7C498962F04C0F9013197F1F79150A7
:100120009923D1F78150882359F708958AE06AE02E
:10013000E4DFF894C09A22E348EB5BE003C0CA0115
:100140000197F1F72150D8F7C098789408957F92DD
:100150008F929F92AF92BF92CF92DF92EF92FF92D7
:100160000F931F93CF93DF938FEF87BB18BA8AE06B
:1001700069E1C3DF6FEF7FEF8FEF9FEFA7DF5B01D9
:100180006C0180E593ECA0E0B0E0A80EB91ECA1E99
:10019000DB1E82E06AE0B1DF80E090E08ED0E82EE6
:1001A0009FEF891711F4EE24E394F89480E28BBF5B
:1001B00086E085BB5FDFA89581B5886181BD81E65A
:1001C00081BD789400E010E0C0E0D0E098EB892E8B
:1001D0009BE0992E7724739480916700882329F0FF
:1001E000A5DF1092670000E010E08091680088238E
:1001F000E1F0F894E394A3E0EA1609F4EE2480E039
:1002000090E06E2D62D08E2D8F5F62E376DF28EC5A
:1002100003C0C4010197F1F72150D8F778941092E8
:10022000680000E010E0C0E0D0E080916600882324
:1002300009F041C00F5F1F4FC601B50147DFFF2422
:100240006A157B058C059D0510F4FF24F394EE2DB3
:10025000F0E0EE0FFF1FE05AFF4F808191810817F9
:10026000190760F0FF2039F0B1E0C737DB0718F459
:1002700000E010E005C05ADF00E010E0FF2059F078
:1002800082E06AE03ADF219681E0C837D80788F03B
:10029000C7E7D1E00EC0619738F00F35110520F0A7
:1002A00045DF00E010E003C081E06AE026DFC0E047
:1002B000D0E07092660088958FCFE199FECF1FBA8B
:1002C0008EBBE09A99278DB30895262FE199FECF32
:1002D0001CBA1FBA8EBB2DBB0FB6F894E29AE19AF6
:0A02E0000FBE01960895F894FFCFB9
:0602EA0077016504CA085B
:00000001FF
