:1000000009C021C04DC01FC01EC01DC01CC01BC0E8
:100010003BC019C011241FBECFE9CDBF10E0A0E640
:10002000B0E0ECE5F3E002C005900D92AE36B1070A
:10003000D9F710E0AEE6B0E001C01D92A137B107DC
:10004000E1F785D089C1DCCF28EB3BE004C0F901A2
:100050003197F1F781508823D1F7089580E28BBF63
:1000600086E085BB0895A89581B5886181BD81E64C
:1000700081BD0895479A379885B7877E806185BF8F
:1000800085B7806285BF08951F920F920FB60F92B9
:10009000112410926E000F900FBE0F901F901895B4
:1000A0001F920F920FB60F9211248F93B29B03C031
:1000B00081E080937000B19B03C081E080936F006A
:1000C0008F910F900FBE0F901F901895C39ABB98F9
:1000D000C39820E030E040E050E006C0B39B09C088
:1000E0002F5F3F4F4F4F5F4F26173707480759077E
:1000F000A8F3BB9AB901CA01089528EB3BE013C0ED
:10010000C49A962F04C0F9013197F1F791509923C1
:10011000D1F7C498962F04C0F9013197F1F79150A7
:100120009923D1F78150882359F708958AE06AE02E
:10013000E4DFF894C09A22E348EB5BE003C0CA0115
:100140000197F1F72150D8F7C098789408957F92DD
:100150008F929F92AF92BF92CF92DF92EF92FF92D7
:100160000F931F93CF93DF938FEF87BB18BA8AE06B
:1001700069E1C3DF6FEF7FEF8FEF9FEFA7DF6B01C9
:100180007C0180E593ECA0E0B0E0C80ED91EEA1E29
:10019000FB1E82E06AE0B1DF80E090E0C7D0B82EBD
:1001A0009FEF891711F422E0B22EF89480E28BBF02
:1001B00086E085BB5FDFA89581B5886181BD81E65A
:1001C00081BD7894C0E0D0E000E010E098EB892E8B
:1001D0009BE0992E7724739480916F00882329F0F7
:1001E000A5DF10926F00C0E0D0E0809170008823FE
:1001F000E1F0F894B394A7E0BA1609F4BB2480E0C8
:1002000090E06B2D9BD08B2D8F5F62E376DF28EC27
:1002100003C0C4010197F1F72150D8F778941092E8
:100220007000C0E0D0E000E010E080916E00882314
:1002300009F053C02196C701B60148DFAA246C1506
:100240007D058E059F0510F4AA24A394BB20E9F038
:100250008B2D90E0019763E070E041D0FC01EE0F40
:10026000FF1FE05AFF4F80819181C817D90768F0BE
:10027000AA2039F0B1E007371B0718F4C0E0D0E03E
:100280000CC054DFC0E0D0E006C088E0CB3CD8070B
:1002900010F0CAECD8E0AA2061F082E06AE02DDF1D
:1002A0000F5F1F4F91E008371907A8F007E711E02B
:1002B00012C0A3E0AB1550F00131110538F0CF3575
:1002C000D10520F033DFC0E0D0E003C081E06AE078
:1002D00014DF00E010E070926E0088957DCF97FBF0
:1002E000092E07260AD077FD04D00CD006D00020B6
:1002F0001AF4709561957F4F0895F6F79095819562
:100300009F4F0895AA1BBB1B51E107C0AA1FBB1F2B
:10031000A617B70710F0A61BB70B881F991F5A9591
:10032000A9F780959095BC01CD010895E199FECF84
:100330001FBA8EBBE09A99278DB30895262FE199B5
:10034000FECF1CBA1FBA8EBB2DBB0FB6F894E29A33
:0C035000E19A0FBE01960895F894FFCFCB
:0E035C0077016504CA080000000000000000E0
:00000001FF
