:1000000009C021C043C01FC01EC01DC01CC01BC0F2
:1000100031C019C011241FBECFE9CDBF10E0A0E64A
:10002000B0E0E0EAF2E002C005900D92A636B1071A
:10003000D9F720E0A6E6B0E001C01D92A836B207CD
:10004000E1F76CD02BC1DCCF80E28BBF84E085BBB5
:100050000895A89581B5886181BD81E681BD089527
:10006000479A379885B7877E806185BF85B780625C
:1000700085BF08951F920F920FB60F921124109210
:1000800067000F900FBE0F901F9018951F920F9250
:100090000FB60F9211248F93B29B03C081E080931F
:1000A00066008F910F900FBE0F901F901895C39A06
:1000B0008BE291E00197F1F700C00000BB98C39874
:1000C00080E090E0B39B05C00196803325E792075E
:1000D000C9F7BB9A0895C49A8BE291E00197F1F7B2
:1000E00000C00000C4980895CF93CAE0F4DF8FE504
:1000F0009AEE0197F1F700C00000C150B9F7F894EB
:10010000C09A9FEB24ED81E0915020408040E1F7C0
:1001100000C00000C0987894CF9108958FEF87BBFE
:1001200018BACAE0D8DF2FE789EA93E0215080406F
:100130009040E1F700C00000C150A1F7B8DF885738
:100140009C4E6C0180E090E095D0182F8F3F09F411
:1001500011E0F89479DF84DF7CDF789400E0C0E080
:10016000D0E0E12CF12C99249394809166008823AF
:1001700069F1F8941F5F133009F410E0612F80E0FB
:1001800090E07FD0C0E0E12EF12C8C2F90E0E816BB
:10019000F90664F0A0DF2FEB84ED91E02150804060
:1001A0009040E1F700C00000CF5FEFCF2FEF82E576
:1001B00097E0215080409040E1F700C00000789423
:1001C00010926600C0E0D0E0E12CF12C8091670035
:1001D00081114EC02FEFE21AF20A69DF5C017BDF6A
:1001E000E12FF0E0EE0FFF1FE05AFF4F8081918179
:1001F000E816F90650F0AC14BD0420F4C73781E0CE
:10020000D80738F071DFE12CF12CAC14BD04A8F450
:1002100002C0E12CF12C011107C08FE59AEE019785
:10022000F1F700C0000057DF2196C83791E0D907E9
:1002300010F0C7E7D1E001E019C00023B9F06197E1
:1002400058F02FE5E216F10438F04EDF00E0C0E090
:10025000D0E0E12CF12C0AC08FE59AEE0197F1F77E
:1002600000C0000038DF00E0C0E0D0E090926700FE
:1002700088957BCFE199FECF8EBBE09A99278DB30D
:100280000895262FE199FECF1CBA8EBB2DBB0FB669
:10029000F894E29AE19A0FBE01960895F894FFCF80
:0602A00077016504CA08A5
:00000001FF
